:020000040000FA
:100000000C945D000C9485000C9485000C94850084
:100010000C9485000C9485000C9485000C9485004C
:100020000C9485000C9485000C9485000C9485003C
:100030000C9485000C9485000C9485000C9485002C
:100040000C94D3030C9485000C94A1030C947B03B3
:100050000C9485000C9485000C9485000C9485000C
:100060000C9485000C9485000000000024002700FB
:100070002A0000000000250028002B0004040404CE
:100080000404040402020202020203030303030342
:10009000010204081020408001020408102001021F
:1000A00004081020000000080002010000030407FB
:1000B00000000000000000006D0711241FBECFEFFC
:1000C000D8E0DEBFCDBF11E0A0E0B1E0E0E2F3E1B7
:1000D00002C005900D92A631B107D9F721E0A6E143
:1000E000B1E001C01D92AD3DB207E1F710E0CDE5F2
:1000F000D0E004C02197FE010E948809CC35D107C9
:10010000C9F70E941D040C948E090C940000AF9254
:10011000BF92CF92DF92EF92FF920F931F93CF93F4
:10012000DF936C017B018B01040F151FEB015E0156
:10013000AE18BF08C017D10759F06991D601ED91EB
:10014000FC910190F081E02DC6010995892B79F78A
:10015000C501DF91CF911F910F91FF90EF90DF903C
:10016000CF90BF90AF900895FC01538D448D252F03
:1001700030E0842F90E0821B930B541710F0CF9641
:10018000089501970895FC01918D828D981761F073
:10019000A28DAE0FBF2FB11D5D968C91928D9F5F8A
:1001A0009F73928F90E008958FEF9FEF0895FC0169
:1001B000918D828D981731F0828DE80FF11D858D1C
:1001C00090E008958FEF9FEF0895FC01918D228DAF
:1001D000892F90E0805C9F4F821B91098F73992734
:1001E000089580E491E00E94E50021E0892B09F464
:1001F00020E0822F089580E090E0892B29F00E9472
:10020000F10081110C9400000895FC01A48DA80F49
:10021000B92FB11DA35ABF4F2C91848D90E0019648
:100220008F739927848FA689B7892C93A089B18968
:100230008C91837080648C93938D848D981306C009
:100240000288F389E02D80818F7D80830895EF926D
:10025000FF920F931F93CF93DF93EC0181E0888F80
:100260009B8D8C8D98131AC0E889F989808185FF50
:1002700015C09FB7F894EE89FF896083E889F989F2
:1002800080818370806480839FBF81E090E0DF91F4
:10029000CF911F910F91FF90EF900895F62E0B8D47
:1002A00010E00F5F1F4F0F731127E02E8C8D8E1102
:1002B0000CC00FB607FCFACFE889F989808185FF69
:1002C000F5CFCE010E940501F1CFEB8DEC0FFD2F94
:1002D000F11DE35AFF4FF0829FB7F8940B8FEA8924
:1002E000FB8980818062CFCFCF93DF93EC01888D33
:1002F0008823B9F0AA89BB89E889F9898C9185FDA1
:1003000003C0808186FD0DC00FB607FCF7CF8C912E
:1003100085FFF2CF808185FFEDCFCE010E940501E0
:10032000E9CFDF91CF91089590E0FC01EC55FF4FAC
:100330002491FC01E057FF4F3491FC01E458FF4F3A
:10034000E491EE23C9F0222339F0233001F1A8F41F
:10035000213019F1223029F1F0E0EE0FFF1FEE58A5
:10036000FF4FA591B4918FB7F894EC91611126C01D
:1003700030953E233C938FBF08952730A9F0283055
:10038000C9F0243049F7809180008F7D03C08091AF
:1003900080008F7780938000DFCF84B58F7784BD16
:1003A000DBCF84B58F7DFBCF8091B0008F778093BA
:1003B000B000D2CF8091B0008F7DF9CF3E2BDACF45
:1003C000CF93DF9390E0FC01E057FF4F24918458D6
:1003D0009F4FFC0184918823D1F090E0880F991FF2
:1003E000FC01E859FF4FA591B491FC01EE58FF4F75
:1003F000C591D49161110EC09FB7F8948C91E22FF2
:10040000E0958E238C932881E223E8839FBFDF91C0
:10041000CF9108958FB7F894EC91E22BEC938FBFB6
:10042000F6CF1F93CF93DF93182FEB0161E00E946B
:10043000E001209739F460E0812FDF91CF911F9187
:100440000C949401CF3FD10511F461E0F5CFE12F79
:10045000F0E0EC55FF4FE491E33031F140F4E1304E
:10046000B1F0E230E1F0C038D1057CF7E4CFE730FD
:1004700029F1E83059F1E430B1F7809180008062D1
:1004800080938000D0938B00C0938A0004C084B511
:10049000806884BDC7BDDF91CF911F91089584B559
:1004A000806284BDC8BDF7CF809180008068809352
:1004B0008000D0938900C0938800EDCF8091B00078
:1004C00080688093B000C093B300E5CF8091B00006
:1004D00080628093B000C093B400DDCF8E50806402
:1004E00080937C0080917A00806480937A00809170
:1004F0007A0086FDFCCF8091780090917900089574
:100500003FB7F89480911B0190911C01A0911D01AF
:10051000B0911E0126B5A89B05C02F3F19F001968A
:10052000A11DB11D3FBFBA2FA92F982F8827BC014D
:10053000CD01620F711D811D911D42E0660F771F75
:10054000881F991F4A95D1F708958F929F92AF9275
:10055000BF92CF92DF92EF92FF924B015C01C0906D
:100560002C01D0902D01E0902E01F0902F01AC01D4
:100570009B01C701B6010E94F4081816CCF420E0D4
:1005800030E040E85FE3C701B6010E949A0760933C
:100590002C0170932D0180932E0190932F01FF90D9
:1005A000EF90DF90CF90BF90AF909F908F90089585
:1005B000A5019401C701B6010E94070887FFEFCF8C
:1005C00020E030E040E85FE3C701B6010E949B07EE
:1005D000DECF8F929F92AF92BF92CF92DF92EF9237
:1005E000FF924B015C01C0902801D0902901E0905E
:1005F0002A01F0902B01AC019B01C701B6010E94BA
:10060000F4081816CCF420E030E040E85FE3C701BE
:10061000B6010E949A076093280170932901809384
:100620002A0190932B01FF90EF90DF90CF90BF9025
:10063000AF909F908F900895A5019401C701B601D6
:100640000E94070887FFEFCF20E030E040E85FE33B
:10065000C701B6010E949B07DECF8F929F92AF9297
:10066000BF920F931F93CF93DF93CDB7DEB7A197C0
:100670000FB6F894DEBF0FBECDBF19A2423008F40A
:100680004AE08E010F5D1F4F842E912CB12CA12CBE
:10069000A50194010E946609E62FB901CA01EA305A
:1006A00044F5E05DD801EE938D01232B242B252BFF
:1006B00079F790E080E0109769F0FD01019000204B
:1006C000E9F73197AF014A1B5B0BBD0180E491E074
:1006D0000E948700A1960FB6F894DEBF0FBECDBF73
:1006E000DF91CF911F910F91BF90AF909F908F900E
:1006F0000895E95CD7CF1F920F920FB60F92112485
:100700002F933F934F935F936F937F938F939F9319
:10071000AF93BF93EF93FF9380E491E00E940501B4
:10072000FF91EF91BF91AF919F918F917F916F91C9
:100730005F914F913F912F910F900FBE0F901F909F
:1007400018951F920F920FB60F9211242F938F932B
:100750009F93EF93FF93E0915001F09151018081BD
:10076000E0915601F091570182FD1BC0908180916C
:1007700059018F5F8F7320915A01821741F0E091E8
:100780005901F0E0E05CFE4F958F80935901FF9195
:10079000EF919F918F912F910F900FBE0F901F900F
:1007A00018958081F4CF1F920F920FB60F921124EB
:1007B0002F933F938F939F93AF93BF938091170194
:1007C00090911801A0911901B0911A013091160170
:1007D00023E0230F2D3758F50196A11DB11D20935D
:1007E00016018093170190931801A0931901B093FB
:1007F0001A0180911B0190911C01A0911D01B091E3
:100800001E010196A11DB11D80931B0190931C0137
:10081000A0931D01B0931E01BF91AF919F918F9145
:100820003F912F910F900FBE0F901F90189526E8C3
:10083000230F0296A11DB11DD2CFCF93DF93CDB769
:10084000DEB768970FB6F894DEBF0FBECDBF7894C1
:1008500084B5826084BD84B5816084BD85B58260C5
:1008600085BD85B5816085BD80916E008160809376
:100870006E001092810080918100826080938100DF
:1008800080918100816080938100809180008160EF
:10089000809380008091B10084608093B10080914A
:1008A000B00081608093B00080917A008460809372
:1008B0007A0080917A00826080937A0080917A0039
:1008C000816080937A0080917A00806880937A00BA
:1008D0001092C10060E08EE00E94E00160E08FE0D5
:1008E0000E94E00160E080E10E94E00160E081E1BF
:1008F0000E94E00161E085E00E94E00161E086E0A5
:100900000E94E001E0915001F091510182E080836A
:10091000E0914C01F0914D011082E0914E01F09177
:100920004F018FEC808310925801E0915401F091B7
:10093000550186E08083E0915201F091530180815E
:1009400080618083E0915201F09153018081886041
:100950008083E0915201F09153018081806880830F
:10096000E0915201F091530180818F7D808311E0ED
:100970008EE00E946E02BC01990F880B990B0E94B9
:10098000440869837A838B839C83609330017093DE
:10099000310180933201909333018FE00E946E0207
:1009A000BC01990F880B990B0E9444086D837E83CC
:1009B0008F8398876093340170933501809336015B
:1009C0009093370180E10E946E02BC01990F880B61
:1009D000990B0E94440869877A878B879C8760936C
:1009E00038017093390180933A0190933B0181E182
:1009F0000E946E02BC01990F880B990B0E9444085B
:100A00006D877E878F87988B60933C0170933D0143
:100A100080933E0190933F018091230190912401A6
:100A2000A0912501B091260180932801909329017E
:100A3000A0932A01B0932B0180911F019091200176
:100A4000A0912101B091220180932C0190932D015E
:100A5000A0932E01B0932F018091270181110CC02A
:100A60001093270160E070E0CB010E94E90260E092
:100A700070E084EB92E4A9C02D813E814F815885BE
:100A800069817A818B819C810E949B0720E030E004
:100A900040E05FE30E94F9082B013C012D853E8573
:100AA0004F85588969857A858B859C850E949B072F
:100AB00020E030E040E05FE30E94F908698B7A8B28
:100AC0008B8B9C8B9B01AC01C301B2010E94F4088B
:100AD00018160CF0EBC12D853E854F85588969812C
:100AE0007A818B819C810E949B074B015C0120E0F5
:100AF00030E040E05FE30E94F9086D8B7E8B8F8BC6
:100B0000988F29853A854B855C856D817E818F81A3
:100B100098850E949B076B017C0120E030E040E05B
:100B20005FE30E94F9089B01AC016D897E898F8982
:100B3000988D0E94F40818165CF460E070E084E37D
:100B400092EC0E94E90260E070E084E392E43DC030
:100B500029893A894B895C89C301B2010E9407083F
:100B600087FFB5C02D853E854F85588969817A817B
:100B70008B819C810E949B0720E030E040E05FE396
:100B80000E94F9086B017C0129853A854B855C85BB
:100B90006D817E818F8198850E949B0720E030E0E7
:100BA00040E05FE30E94F9089B01AC01C701B60178
:100BB0000E9407088111A6C060E070E0CB010E948E
:100BC000E90260E070E084EB92EC0E94A502C09024
:100BD0002C01D0902D01E0902E01F0902F01C092B9
:100BE0001F01D0922001E0922101F0922201609138
:100BF00028017091290180912A0190912B01609325
:100C000023017093240180932501909326010E9473
:100C10000C0885E00E941102C701B6010E940C0871
:100C200086E00E94110281E10E946E026C01990F20
:100C3000EE08FF084AE0C701B601F7FE0DC06DE2FD
:100C400080E491E00E94270166277727CB016C1989
:100C50007D098E099F094AE00E942D0342E050E081
:100C600062E171E080E491E00E9487000E948002CE
:100C70004B015C0184E6C82ED12CE12CF12C0E94A2
:100C80008002681979098A099B09683E73408105C9
:100C90009105A8F321E0C21AD108E108F10888EE15
:100CA000880E83E0981EA11CB11CC114D104E1047C
:100CB000F10429F780E090E0892B09F459CE0E94D5
:100CC000F100882309F454CE0E94000051CE20E0A8
:100CD00030E040E05FE3C501B4010E94F9084B0138
:100CE0005C0120E030E040E05FE3C701B6010E9414
:100CF000F9089B01AC01C501B4010E9407088823D3
:100D000009F4B0CE29893A894B895C89C301B201C3
:100D10000E94070887FF44C02D853E854F8558896E
:100D200069817A818B819C810E949B0720E030E061
:100D300040E05FE30E94F9086B017C0129853A8558
:100D40004B855C856D817E818F8198850E949B0794
:100D500020E030E040E05FE30E94F9084B015C01D5
:100D6000AC019B01C701B6010E94F40818165CF49F
:100D700060E070E084E392EC0E94E90260E070E0E1
:100D800084E392EC22CFA5019401C701B6010E9431
:100D9000070887FF96C060E070E084E392E4ECCF40
:100DA00029893A894B895C89C301B2010E94F40800
:100DB00018167CF52D853E854F85588969817A8185
:100DC0008B819C810E949B0720E030E040E05FE344
:100DD0000E94F9086B017C0129853A854B855C8569
:100DE0006D817E818F8198850E949B0720E030E095
:100DF00040E05FE30E94F9089B01AC01C701B60126
:100E00000E94070887FFE3CE60E070E084E392E48D
:100E100098CE29893A894B895C89C301B2010E9425
:100E200007088111D4CE2D853E854F85588969816B
:100E30007A818B819C810E949B0720E030E040E01A
:100E40005FE30E94F9086B017C0129853A854B8597
:100E50005C856D817E818F8198850E949B0720E053
:100E600030E040E05FE30E94F9084B015C01AC0117
:100E70009B01C701B6010E94F408181654F460E003
:100E800070E084EB92EC0E94E90260E070E0CB013C
:100E90009CCEA5019401C701B6010E94070887FFF7
:100EA00096CE60E070E084EB92E4EDCF29893A8938
:100EB0004B895C89C301B2010E94070887FD52CEAD
:100EC00021CF29893A894B895C89C301B2010E94EB
:100ED000F40818160CF46ECF7ACEE0E4F1E0138239
:100EE000128288EE93E0A0E0B0E084839583A6832D
:100EF000B78384E091E09183808385EC90E09587CF
:100F0000848784EC90E09787868780EC90E0918BD3
:100F1000808B81EC90E0938B828B82EC90E0958BC0
:100F2000848B86EC90E0978B868B118E128E138EBD
:100F3000148E08955058BB27AA270E94B2070C941C
:100F4000BA080E94AC0838F00E94B30820F039F4C7
:100F50009F3F19F426F40C94A9080EF4E095E7FBE2
:100F60000C94A308E92F0E94CB0858F3BA17620724
:100F700073078407950720F079F4A6F50C94ED0823
:100F80000EF4E0950B2EBA2FA02D0B01B9019001A4
:100F90000C01CA01A0011124FF27591B99F0593FE8
:100FA00050F4503E68F11A16F040A22F232F342F30
:100FB0004427585FF3CF469537952795A795F0407E
:100FC0005395C9F77EF41F16BA0B620B730B840B93
:100FD000BAF09150A1F0FF0FBB1F661F771F881F4B
:100FE000C2F70EC0BA0F621F731F841F48F48795A3
:100FF00077956795B795F7959E3F08F0B0CF939595
:10100000880F08F09927EE0F9795879508950E940D
:101010007F0808F481E008950E9413086894B111D4
:101020000C94EE0808950E94D30888F09F5798F01A
:10103000B92F9927B751B0F0E1F0660F771F881FDD
:10104000991F1AF0BA95C9F714C0B13091F00E94F7
:10105000ED08B1E008950C94ED08672F782F8827EC
:10106000B85F39F0B93FCCF3869577956795B3951E
:10107000D9F73EF490958095709561957F4F8F4F8D
:101080009F4F0895E89409C097FB3EF49095809592
:10109000709561957F4F8F4F9F4F9923A9F0F92F3E
:1010A00096E9BB279395F695879577956795B795BC
:1010B000F111F8CFFAF4BB0F11F460FF1BC06F5FA2
:1010C0007F4F8F4F9F4F16C0882311F096E911C0B4
:1010D000772321F09EE8872F762F05C0662371F0D5
:1010E00096E8862F70E060E02AF09A95660F771FE9
:1010F000881FDAF7880F9695879597F90895990FC5
:101100000008550FAA0BE0E8FEEF16161706E807D1
:10111000F907C0F012161306E407F50798F0621BF2
:10112000730B840B950B39F40A2661F0232B242BC7
:10113000252B21F408950A2609F4A140A6958FEFE6
:10114000811D811D089597F99F6780E870E060E038
:1011500008959FEF80EC089500240A941616170650
:1011600018060906089500240A9412161306140698
:1011700005060895092E0394000C11F4882352F0FB
:10118000BB0F40F4BF2B11F460FF04C06F5F7F4FB3
:101190008F4F9F4F089557FD9058440F551F59F09A
:1011A0005F3F71F04795880F97FB991F61F09F3F54
:1011B00079F087950895121613061406551FF2CF7D
:1011C0004695F1DF08C0161617061806991FF1CFCD
:1011D00086957105610508940895E894BB276627F4
:1011E0007727CB0197F908950E947F0808F48FEFC5
:1011F00008950E940C090C94BA080E94AC0838F0BB
:101200000E94B30820F0952311F00C94A3080C94CD
:10121000A90811240C94EE080E94CB0870F3959F46
:10122000C1F3950F50E0551F629FF001729FBB27DD
:10123000F00DB11D639FAA27F00DB11DAA1F649F79
:101240006627B00DA11D661F829F2227B00DA11D2C
:10125000621F739FB00DA11D621F839FA00D611DB2
:10126000221F749F3327A00D611D231F849F600DD3
:10127000211D822F762F6A2F11249F5750409AF0FC
:10128000F1F088234AF0EE0FFF1FBB1F661F771F88
:10129000881F91505040A9F79E3F510580F00C9453
:1012A000A3080C94EE085F3FE4F3983ED4F38695D0
:1012B00077956795B795F795E7959F5FC1F7FE2BF3
:1012C000880F911D9695879597F90895A1E21A2E9A
:1012D000AA1BBB1BFD010DC0AA1FBB1FEE1FFF1FDA
:1012E000A217B307E407F50720F0A21BB30BE40B2A
:1012F000F50B661F771F881F991F1A9469F7609571
:101300007095809590959B01AC01BD01CF0108952A
:10131000EE0FFF1F0590F491E02D0994F894FFCF94
:101320000000000027018700B4007401E500C3003D
:06133000D7000D0A0000C9
:107E0000112484B714BE81FFF0D085E080938100F7
:107E100082E08093C00088E18093C10086E0809377
:107E2000C20080E18093C4008EE0C9D0259A86E02C
:107E300020E33CEF91E0309385002093840096BBD3
:107E4000B09BFECF1D9AA8958150A9F7CC24DD24C4
:107E500088248394B5E0AB2EA1E19A2EF3E0BF2EE7
:107E6000A2D0813461F49FD0082FAFD0023811F036
:107E7000013811F484E001C083E08DD089C08234E0
:107E800011F484E103C0853419F485E0A6D080C0E4
:107E9000853579F488D0E82EFF2485D0082F10E0AE
:107EA000102F00270E291F29000F111F8ED06801E7
:107EB0006FC0863521F484E090D080E0DECF843638
:107EC00009F040C070D06FD0082F6DD080E0C81688
:107ED00080E7D80618F4F601B7BEE895C0E0D1E017
:107EE00062D089930C17E1F7F0E0CF16F0E7DF06D8
:107EF00018F0F601B7BEE89568D007B600FCFDCFD4
:107F0000A601A0E0B1E02C9130E011968C91119780
:107F100090E0982F8827822B932B1296FA010C0160
:107F200087BEE89511244E5F5F4FF1E0A038BF0790
:107F300051F7F601A7BEE89507B600FCFDCF97BE46
:107F4000E89526C08437B1F42ED02DD0F82E2BD052
:107F50003CD0F601EF2C8F010F5F1F4F84911BD097
:107F6000EA94F801C1F70894C11CD11CFA94CF0C13
:107F7000D11C0EC0853739F428D08EE10CD085E9AC
:107F80000AD08FE07ACF813511F488E018D01DD067
:107F900080E101D065CF982F8091C00085FFFCCF94
:107FA0009093C60008958091C00087FFFCCF809118
:107FB000C00084FD01C0A8958091C6000895E0E648
:107FC000F0E098E1908380830895EDDF803219F02E
:107FD00088E0F5DFFFCF84E1DECF1F93182FE3DFCA
:107FE0001150E9F7F2DF1F91089580E0E8DFEE27F6
:047FF000FF270994CA
:027FFE00040479
:00000001FF
